:100000000C94F1000C940E010C940E010C940E0152
:100010000C940E010C940E010C940E010C940E0124
:100020000C940E010C94CA010C941D060C945806F5
:100030000C940E010C940E010C940E010C940E0104
:100040000C940E010C940E010C940E010C940E01F4
:100050000C940E010C940E010C940E010C940E01E4
:100060000C940E010C940E010C940E010C940E01D4
:100070000C940E010C940E010C940E010C940E01C4
:100080000C940E010C9470020C9480020C9451029A
:100090000C940E010C940E010C940E010C94900221
:1000A0000C940E010C940E010C940E01B105AE05DA
:1000B000AB05A805A505A2059F059C059905960514
:1000C000930590058D058A058705840581057E05C4
:1000D0007B057805750572056F056C056905660574
:1000E000630560055D055A055705540551054E0524
:1000F0004B054805450542053F053C0539053605D4
:10010000330530052D052A052705240521051E0583
:100110001B051805150512050F050C050905060533
:1001200003050005FD04FA04F704F404F1040001DA
:10013000000062011200020000740143000300008D
:10014000B7010401030904BB011202030904CF0132
:100150000603030904D701080001C112018036011A
:1001600081361201000202000010C0167A0400015C
:100170000102030109024300020100C03209040028
:100180000001020201000524001001052401010103
:10019000042402060524060001070582031000401E
:1001A00009040100020A00000007050302400000E4
:1001B000070584024000000403090412034A002ECC
:1001C0000020004600690065006E00650000000622
:1001D000034D0032000000080334003100300000FD
:1001E000000011241FBECFEFDAE0DEBFCDBF11E06B
:1001F000A0E0B1E0EAEDFDE202C005900D92A03270
:10020000B107D9F711E0A0E2B1E001C01D92AA3414
:10021000B107E1F70E9416150C94EB160C94000040
:10022000382F87FD75C0823009F472C0833009F41D
:100230006FC08E300CF06CC0809120018823E1F4F7
:1002400081E08093200180917C00806480937C0019
:1002500080917C008F7780937C0080917A00816010
:1002600080937A0080917A00826080937A008091F6
:100270007A00846080937A00432F552747FD50957C
:100280003830A4F480917B008F7D80937B00209197
:100290007E0081E090E002C0880F991F4A95E2F746
:1002A000282B20937E0080917C0016C080917B00DB
:1002B000806280937B0020917D004850504081E017
:1002C00090E002C0880F991F4A95E2F7282B2093EF
:1002D0007D0080917C003850807E832B80937C0051
:1002E00080917A00806880937A0080917A0080649F
:1002F00080937A0080917A0084FFFCCF80917A000D
:10030000806180937A00209178003091790002C05A
:100310002FEF3FEFC90108956A9A813031F08230A2
:1003200031F0882341F4729A0895729808958EB13D
:1003300094E089278EB908956E9A813031F0823029
:1003400031F0882341F4769A0895769808958EB115
:1003500090E489278EB90895E82FFF27E7FDF095EF
:10036000EE0FFF1FEE0FFF1FE05EFE4F10821182A7
:10037000128213820895E82FFF27E7FDF095EE0F14
:10038000FF1FEE0FFF1FE05EFE4F608171818281D3
:10039000938108951F920F920FB60F9211242F93FD
:1003A0003F934F935F936F937F938F939F93AF93FD
:1003B000BF93EF93FF93E0913001F0913101F093FF
:1003C0002D01E0932C0183B190E0837090709093A5
:1003D00031018093300160E071E0EE0FFF1FEE0FFE
:1003E000FF1FE80FF91FE60FF71F8081992787FD90
:1003F0009095A92FB92F2091280130912901409182
:100400002A0150912B01820F931FA41FB51F8093C7
:10041000280190932901A0932A01B0932B012091E8
:1004200032013091330130932F0120932E0183B19B
:1004300090E08C70907095958795959587959093A1
:10044000330180933201E8E2F1E0220F331F220FE3
:10045000331F280F391F620F731FDB018C919927FF
:1004600087FD9095A92FB92F5291429132912291F7
:10047000820F931FA41FB51F80839183A283B38330
:10048000FF91EF91BF91AF919F918F917F916F916C
:100490005F914F913F912F910F900FBE0F901F9042
:1004A00018951F920F920FB60F9211248F9380917F
:1004B000230181115F9A809122018111479A8091D5
:1004C0002101882339F02D9A1092BF001092BF00AD
:1004D0001092BE008F910F900FBE0F901F90189535
:1004E0001F920F920FB60F9211248F9380912301C8
:1004F00081115F988F910F900FBE0F901F901895EC
:100500001F920F920FB60F9211248F9380912201A8
:10051000811147988F910F900FBE0F901F901895E3
:100520001F920F920FB60F9211248F939F9388B151
:1005300090E4892788B98091210181112D989F919C
:100540008F910F900FBE0F901F9018951F93162F2D
:10055000813049F462E00E94ED0C112311F05D9AA4
:100560000BC05D9809C081E061E00E94ED0C112391
:1005700011F05E9A01C05E988BB11F9108958C3086
:1005800009F447C08D3024F48A3009F056C006C003
:10059000883151F1893109F050C013C0CB01BA0143
:1005A00020E030E040EA51E40E942B1120E030E0EE
:1005B00040EA50E40E94EA0F9B01AC0183E062E054
:1005C00025C0CB01BA0120E030E040EA51E40E94AE
:1005D0002B1120E030E040EA50E40E94EA0F9B013A
:1005E000AC0183E063E012C0CB01BA0120E030E04F
:1005F00040EA51E40E942B1120E030E040EA50E450
:100600000E94EA0F9B01AC0183E061E00E94ED0CC7
:100610000895CB01BA0120E030E040EA50E40E94A6
:10062000461020E030E04AEF53E40E94EA0F0E94B7
:10063000610E7093BF006093D00008951F93182F30
:1006400083E040E050E068E472E40E94D8081C3087
:1006500009F44DC01D3024F41A3009F067C006C0FB
:100660001831B1F1193109F061C019C081E08093EE
:1006700023018091710084608093710080917100EA
:1006800081608093710083E062E020E030E040EF21
:1006900050E40E94ED0C5F98579A789447C081E02F
:1006A0008093220180917100886080937100809115
:1006B000710081608093710083E063E020E030E0AE
:1006C00040EF50E40E94ED0C47983F9A78942EC07A
:1006D0008091900080688093900083E061E020E04A
:1006E00030E040EF50E40E94ED0C3E9A1FC081E0E4
:1006F000809321018091710081608093710084E07A
:1007000040E050E06AEF73E40E94D80884E062E0C1
:1007100020E030E046E952E40E94ED0C2D98259A45
:100720008091720080628093720078941F91089586
:10073000E1E6F0E080E88083108285BF85BF81E03C
:1007400040E050E46CE976E40E94D80881E061E082
:1007500041E00E944F0C81E061E020E030E040E0A9
:1007600050E00E94ED0C569A5E9881E062E041E014
:100770000E944F0C81E062E020E030E040E050E079
:100780000E94ED0C559A5E9883B190E08370907052
:10079000909331018093300183B190E08C70907020
:1007A0009093330180933201E8E6F0E0808181602C
:1007B0008083EBE6F0E080818160808380818260CD
:1007C0008083808184608083808188608083789446
:1007D000089581E08093D70080EA8093D80082E179
:1007E00089BD09B400FEFDCF80E98093D800109246
:1007F000E00010923401109235018CE08093E20009
:10080000789408958091340108959FB7F894809169
:100810003401882339F083E08093E9008091E80077
:1008200085FD03C09FBF8FEF08952091F100809157
:10083000E80085FD03C08BE68093E8009FBF822F10
:1008400008959FB7F89480913401882329F083E0BC
:100850008093E9008091F2009FBF08958091340158
:10086000882371F09FB7F89483E08093E9002BE62A
:1008700002C02093E8008091E80085FDFACF9FBF79
:100880000895482F809134018823D9F12FB7F89427
:1008900084E08093E90080913701882341F08091C2
:1008A000E80085FD02C02FBF12C010923701909161
:1008B000E400975E34E08091E80085FD13C02FBF0F
:1008C0008091E400891729F481E0809337018FEF4C
:1008D0000895809134018823A1F02FB7F8943093C4
:1008E000E900E9CF4093F1008091E80085FD03C065
:1008F0008AE38093E80085E0809336012FBF80E093
:1009000008958FEF0895282F80913401882351F0A6
:100910009FB7F89484E08093E9008091E80085FD1A
:1009200003C09FBF8FEF08952093F1008091E800EE
:1009300085FD03C08AE38093E80085E0809336015B
:100940009FBF80E00895CF93DF93EC018091340145
:10095000882309F41CC13FB7F89484E08093E90030
:1009600080913701882309F407C18091E80085FD53
:1009700002C03FBF0CC110923701FEC09091E4004D
:10098000975E8091E80085FD13C03FBF8091E40031
:10099000891721F481E080933701F9C080913401F7
:1009A000882309F4F4C03FB7F8945093E900E9CFE5
:1009B0008091F2002A2F281B822F90E06817790778
:1009C00008F4262F822F90E08134910508F0C6C0EC
:1009D0008A5A9F4FFC01EE0FFF1F0590F491E02D06
:1009E000099489918093F10089918093F100899114
:1009F0008093F10089918093F10089918093F100B7
:100A000089918093F10089918093F100899180937D
:100A1000F10089918093F10089918093F10089918F
:100A20008093F10089918093F10089918093F10086
:100A300089918093F10089918093F100899180934D
:100A4000F10089918093F10089918093F10089915F
:100A50008093F10089918093F10089918093F10056
:100A600089918093F10089918093F100899180931D
:100A7000F10089918093F10089918093F10089912F
:100A80008093F10089918093F10089918093F10026
:100A900089918093F10089918093F10089918093ED
:100AA000F10089918093F10089918093F1008991FF
:100AB0008093F10089918093F10089918093F100F6
:100AC00089918093F10089918093F10089918093BD
:100AD000F10089918093F10089918093F1008991CF
:100AE0008093F10089918093F10089918093F100C6
:100AF00089918093F10089918093F100899180938D
:100B0000F10089918093F10089918093F10089919E
:100B10008093F10089918093F10089918093F10095
:100B200089918093F10089918093F100899180935C
:100B3000F10089918093F10089918093F10089916E
:100B40008093F10089918093F10089918093F10065
:100B500089918093F10089918093F100899180932C
:100B6000F1008091E80085FD02C0B093E800621BAF
:100B700071094093360104C054E0A0E4BAE345E0B3
:100B80006115710509F0FACE3FBF80E001C08FEF1B
:100B9000DF91CF9108959FB7F89480913601882313
:100BA00041F084E08093E9008AE38093E8001092AA
:100BB00036019FBF089560911001709111018091DD
:100BC000120190911301089580911401089580916C
:100BD00015010895809116010895809135010895B9
:100BE000382F9FB7F89480913401882339F022E0A0
:100BF0002093E9008091E80085FD03C09FBF8FEF3F
:100C0000089581EA8093F10080E28093F1001092D0
:100C1000F1001092F1001092F1001092F100209377
:100C2000F1001092F1003093F1001092F1008AE38C
:100C30008093E8009FBF80E008951F920F920FB647
:100C40000F9211248F939F938091E1001092E10005
:100C5000982F83FF11C01092E90081E08093EB0090
:100C60001092EC0082E18093ED0088E08093F00028
:100C7000109234011092350192FF13C0809134011B
:100C8000882379F080913601882359F08150809330
:100C90003601882331F484E08093E9008AE380936D
:100CA000E8009F918F910F900FBE0F901F901895A5
:100CB0001F920F920FB60F9211240F931F932F9331
:100CC0003F934F935F936F937F938F939F93AF93D4
:100CD000BF93EF93FF931092E9008091E80083FFA8
:100CE0003CC14091F1003091F1008091F100682FFA
:100CF00070E02091F100922F80E0682B792B809199
:100D0000F100A82FB0E02091F100922F80E0A82BF5
:100D1000B92B1091F1000091F10082EF8093E8006F
:100D2000363009F05AC025E331E0A9014550504062
:100D3000F9013797859194918617970701F5FA0184
:100D4000859194918A179B07D1F49A012E5F3F4FAA
:100D5000F901659174912E5F3F4FF9014491212F64
:100D600030E0902F80E0282B392B2F3F310519F0F0
:100D700010F02FEF30E0241758F4422F09C0295FFC
:100D80003F4F495F5F4FF1E02F353F0789F6E5C0E0
:100D90005EEF8091E800282F30E0C90185709070E7
:100DA000892BB9F322FDDCC0342F413108F030E14A
:100DB000232FCB0106C0FC010196E491E093F100E2
:100DC00021502223C1F7630F711D431B5093E8008C
:100DD0004423F9F63031E9F2C3C0353061F48EEFC7
:100DE0008093E8008091E80080FFFCCF862F806828
:100DF0008093E300B5C0393051F5442309F0ADC00C
:100E00006093340110923501109236018EEF809379
:100E1000E80088E591E021E02093E900FC010196DB
:100E2000E491E093EB00EE2369F0AC014F5F5F4F7C
:100E3000FC0184918093EC00CA010196FA0134917F
:100E40003093ED002F5F253039F78EE181C03830C7
:100E500061F4403809F081C08091E80080FFFCCF48
:100E6000809134018093F10050C0313289F4413ACD
:100E700009F073C08091E80080FFFCCFE0E1F1E071
:100E800081918093F10081E0E731F807C9F73DC017
:100E90003032A1F4413209F060C08091E80082FF55
:100EA000FCCFE0E1F1E08091F100819381E0E73156
:100EB000F807C9F78BEF8093E80027C0323251F46E
:100EC000413209F04AC0609335018091E80080FF0B
:100ED000FCCF1BC03323E9F48091E80080FFFCCFF6
:100EE000423811F080E00DC0A093E9008091EB0042
:100EF00090E025E0969587952A95E1F7817010920C
:100F0000E9008093F1001092F1008EEF8093E800E9
:100F100027C0313011F0333001F54230F1F4672B46
:100F2000E1F42A2F2F77822F81508430B0F48EEF96
:100F30008093E8002093E900333079F089E18093D1
:100F4000EB0081E090E002C0880F991F2A95E2F73C
:100F50008093EA001092EA0003C081E28093EB00E4
:100F6000FF91EF91BF91AF919F918F917F916F9181
:100F70005F914F913F912F911F910F910F900FBE55
:100F80000F901F9018951F93CF93DF93EC01FE01F4
:100F900021961491112349F01A3019F48DE00E9422
:100FA0004104812F0E944104F2CFDF91CF911F9124
:100FB0000895982F8A3010F087E301C080E3890FED
:100FC0000E94410408951F93182F82958F700E94EC
:100FD000D907812F8F700E94D9071F9108951F9301
:100FE000182F892F0E94E307812F0E94E3071F918A
:100FF00008950E94E3070895EF92FF920F931F93C5
:10100000DF93CF93CDB7DEB72A970FB6F894DEBF44
:101010000FBECDBF8E010F5F1F4F2AE0F801119266
:101020002A95E9F7A8012AE030E00E946A163BE021
:10103000E32EF12CEC0EFD1EF8018081882311F0C7
:101040000E9441040F5F1F4F0E151F05A9F72A9636
:101050000FB6F894DEBF0FBECDBFCF91DF911F91C9
:101060000F91FF90EF900895EF92FF920F931F93CF
:10107000DF93CF93CDB7DEB72B970FB6F894DEBFD3
:101080000FBECDBF8E010F5F1F4F2BE0F8011192F5
:101090002A95E9F7A8012AE030E00E9436164CE0D4
:1010A000E42EF12CEC0EFD1EF8018081882311F056
:1010B0000E9441040F5F1F4F0E151F05A9F72B96C5
:1010C0000FB6F894DEBF0FBECDBFCF91DF911F9159
:1010D0000F91FF90EF900895EF92FF920F931F935F
:1010E000DF93CF9300D000D00F92CDB7DEB78E0143
:1010F0000F5F1F4F25E0F80111922A95E9F7B8011B
:101100004AE050E00E948F1656E0E52EF12CEC0EDE
:10111000FD1EF8018081882311F00E9441040F5FB9
:101120001F4F0E151F05A9F70F900F900F900F90EE
:101130000F90CF91DF911F910F91FF90EF90089545
:10114000EF92FF920F931F93DF93CF93CDB7DEB74C
:1011500027970FB6F894DEBF0FBECDBF8E010F5F8D
:101160001F4F27E0F80111922A95E9F7B8014AE0EC
:1011700050E00E94151668E0E62EF12CEC0EFD1EE4
:10118000F8018081882311F00E9441040F5F1F4FF6
:101190000E151F05A9F727960FB6F894DEBF0FBEF0
:1011A000CDBFCF91DF911F910F91FF90EF900895E8
:1011B000EF92FF920F931F937A018B01813009F414
:1011C000A7C082301CF4882341F063C3833009F444
:1011D00067C1843009F05DC32CC284B5816084BDD1
:1011E00084B5826084BD85B5886085BD16BC40939A
:1011F0003A0150933B0160933C0170933D01CB0158
:10120000BA0120E038E146E757E40E94CE111816F3
:101210008CF460E074E284E79BE4A80197010E94EB
:101220002B110E94610E67BD85B5816085BD85B5B6
:101230008D7F32C0C801B70120E030E545EF55E4AD
:101240000E94FD11882374F060E074E284EF99E459
:10125000A80197010E942B110E94610E67BD85B500
:101260008E7F17C0C801B70120E030E045E754E4A5
:101270000E94FD118823A4F060E074E284E798E402
:10128000A80197010E942B110E94610E67BD85B5D0
:10129000816085BD85B5826085BD85B58B7F36C093
:1012A000C801B70120E030E045E753E40E94FD119A
:1012B000882374F060E074E284E797E4A801970162
:1012C0000E942B110E94610E67BD85B58E7F18C0EC
:1012D000C801B70123E333E345E752E40E94FD115F
:1012E00088230CF4D6C260E074E284E796E4A80197
:1012F00097010E942B110E94610E67BD85B5816028
:1013000085BD85B58D7F85BD85B5846085BD0FC1E3
:10131000809181008061809381008091810088604C
:101320008093810080918000826080938000809112
:10133000800081608093800010928500109284006C
:1013400040933E0150933F016093400170934101EF
:10135000CB01BA0120E030E04AE753E40E94CE110D
:101360001816BCF460E074E284E79BE4A8019701DE
:101370000E942B110E94610E709389006093880077
:1013800080918100816080938100809181008D7FB8
:101390003CC0C801B70120E030E048EF51E40E94B2
:1013A000FD11882394F060E074E284EF99E4A801D1
:1013B00097010E942B110E94610E70938900609327
:1013C0008800809181008E7F1BC0C801B70120E09A
:1013D00030E040E850E40E94FD118823E4F060E032
:1013E00074E284E798E4A80197010E942B110E94FF
:1013F000610E709389006093880080918100816004
:10140000809381008091810082608093810080912F
:1014100081008B7F42C0C801B70120E030E040E886
:101420005FE30E94FD11882394F060E074E284E79A
:1014300097E4A80197010E942B110E94610E7093FE
:10144000890060938800809181008E7F1CC0C80154
:10145000B7012FE832EC45E75EE30E94CE11181683
:101460000CF017C260E074E284E796E4A8019701EB
:101470000E942B110E94610E709389006093880076
:1014800080918100816080938100809181008D7FB7
:10149000809381008091810084608093810047C0A7
:1014A000809191008061809391008091910088608B
:1014B0008093910080919000826080939000809151
:1014C00090008E7F8093900010929500109294006F
:1014D000409342015093430160934401709345014E
:1014E000CB01BA0120E030E04AE753E40E94CE117C
:1014F0001816FCF460E074E284E79BE4A80197010D
:101500000E942B110E94610E7093970060939600C9
:1015100080919100816080939100809191008D7FF6
:1015200080939100809191008B7F8093910081E066
:10153000B1C1C801B70120E030E048EF51E40E949A
:10154000FD11882394F060E074E284EF99E4A8012F
:1015500097010E942B110E94610E70939700609377
:101560009600809191008E7F1BC0C801B70120E0DA
:1015700030E040E850E40E94FD118823BCF060E0B8
:1015800074E284E798E4A80197010E942B110E945D
:10159000610E709397006093960080919100816036
:1015A00080939100809191008260BACFC801B70109
:1015B00020E030E040E85FE30E94FD11882394F0D2
:1015C00060E074E284E797E4A80197010E942B1180
:1015D0000E94610E70939700609396008091910035
:1015E0008E7F1CC0C801B7012FE832EC45E75EE3EF
:1015F0000E94CE1118160CF04CC160E074E284E732
:1016000096E4A80197010E942B110E94610E70932D
:101610009700609396008091910081608093910083
:10162000809191008D7F80939100809191008460E2
:101630007CCF8091C3008D7F8093C3008091C300D5
:101640008E7F8093C3001092BF001092BE00409323
:101650004601509347016093480170934901CB01C3
:10166000BA0120E030E644E756E40E94CE11181695
:10167000E4F460E074E284E79BE4A80197010E942F
:101680002B110E94610E7093BF006093D100809176
:10169000C10081608093C1008091C1008D7F8093E3
:1016A000C1008091C1008B7F29C0C801B70120E033
:1016B00030E04AEF54E40E94CE1118162CF560E099
:1016C00074E284EF99E4A80197010E942B110E9413
:1016D000610E70933801109239017093BF006093CE
:1016E000D1008091C1008E7F8093C1008091C100A4
:1016F0008D7F8093C1008091C10084608093C10080
:101700008091C100877FC2C0C801B70120E030E8E6
:1017100044EF53E40E94CE111816B4F460E074E272
:1017200084EF98E4A80197010E942B110E94610E9A
:1017300070933801109239017093BF006093D1000B
:101740008091C1008E7F1FC0C801B70120E030E04A
:1017500045E753E40E94CE111816DCF460E074E211
:1017600084E798E4A80197010E942B110E94610E62
:1017700070933801109239017093BF006093D100CB
:101780008091C10081608093C1008091C10082601E
:10179000B0CFC801B70120E030E048EF51E40E942B
:1017A000CE11181604F560E074E284EF96E4A80107
:1017B00097010E942B110E94610E709338011092C4
:1017C00039017093BF006093D1008091C1008E7F7A
:1017D0008093C1008091C10082608093C10080919C
:1017E000C1008B7F4EC0C801B70120E030E040E06F
:1017F00051E40E94CE111816DCF460E074E284EF2C
:1018000095E4A80197010E942B110E94610E70932C
:101810003801109239017093BF006093D10080911C
:10182000C1008E7F8093C1008091C1008D7F24C054
:10183000C801B70120E030E040E85FE30E94CE112C
:1018400018163CF560E074E284E794E4A80197017F
:101850000E942B110E94610E709338011092390181
:101860007093BF006093D1008091C100816080932C
:10187000C1008091C10082608093C1008091C1004D
:1018800084608093C1008091C10088608093C10012
:101890004ECE80E01F910F91FF90EF900895813020
:1018A000C9F082301CF4882339F095C0833091F15F
:1018B000843009F090C041C0613009F08CC04423ED
:1018C00021F0509A84B5806203C0509884B58F7D12
:1018D00084BD7FC0613021F0623009F07CC00CC053
:1018E000442329F0269A80918000806210C02698B7
:1018F000809180008F7D0BC0442329F0279A80912E
:101900008000886004C0279880918000877F809342
:1019100080005FC0613009F05EC0442339F03E9A18
:101920008091900080688093900010C03E988091D4
:1019300090008F778093900013C06230D9F06330AD
:1019400089F1613009F047C0442351F03F9A8091FA
:10195000C00080688093C0008091C00082601FC07A
:101960003F988091C0008F778093C0008091C00025
:101970008D7F15C0442351F0259A8091C00080616D
:101980008093C0008091C000816009C0259880913B
:10199000C0008F7E8093C0008091C0008E7F8093B6
:1019A000C00017C0442351F0579A8091C20088604C
:1019B0008093C2008091C200816009C057988091D5
:1019C000C200877F8093C2008091C2008E7F809387
:1019D000C20081E0089580E00895AF92BF92CF9257
:1019E000DF92EF92FF920F931F93082F162F59014A
:1019F0006A01CA01B90120E030E040E050E00E94F5
:101A00002C1287FD54C1C601B50120E030E048EC3E
:101A100052E40E94CE1118160CF449C1013049F16C
:101A200002301CF4002341F042C1033009F465C0C8
:101A3000043009F03CC1C6C0113009F038C167B5A7
:101A400070E080E090E00E9406137B018C01C601EB
:101A5000B50120E030E048EC52E40E942B119B01DC
:101A6000AC01C801B7010E9446100E94610E68BD1A
:101A7000FAC0113021F0123009F019C11FC0609175
:101A800088007091890080E090E00E9406137B013D
:101A90008C01C601B50120E030E048EC52E40E9420
:101AA0002B119B01AC01C801B7010E9446100E9496
:101AB000610E70938B0060938A0027C0609188004C
:101AC0007091890080E090E00E9406137B018C01F8
:101AD000C601B50120E030E048EC52E40E942B1131
:101AE0009B01AC01C801B7010E9446100E94610E23
:101AF00070938D0060938C0027C0123029F1133051
:101B000009F441C0113009F0D2C060919600709183
:101B1000970080E090E00E9406137B018C01C601D3
:101B2000B50120E030E048EC52E40E942B119B010B
:101B3000AC01C801B7010E9446100E94610E70936B
:101B400099006093980046C060919600709197004C
:101B500080E090E00E9406137B018C01C601B50174
:101B600020E030E048EC52E40E942B119B01AC01D4
:101B7000C801B7010E9446100E94610E70939B003D
:101B800060939A0049C0609196007091970080E040
:101B900090E00E9406137B018C01C601B50120E094
:101BA00030E048EC52E40E942B119B01AC01C801CB
:101BB000B7010E9446100E94610E70939D006093D1
:101BC0009C0053C0123041F1133009F44EC0113063
:101BD00009F06DC02091D1007091380160E0620F72
:101BE000711D80E090E00E9406137B018C01C6010C
:101BF000B50120E030E048EC52E40E942B119B013B
:101C0000AC01C801B7010E9446100E94610E70939A
:101C1000BF006093CF0027C02091D10070913801A0
:101C200060E0620F711D80E090E00E9406137B016E
:101C30008C0160E070E088EC92E4A60195010E94BE
:101C4000161020E030E048EC52E40E942B119B017A
:101C5000AC01C801B7010E9446100E94610E70934A
:101C6000BF006093D00081E023C02091D10070912B
:101C7000380160E0620F711D80E090E00E94061361
:101C80007B018C01C601B50120E030E048EC52E454
:101C90000E942B119B01AC01C801B7010E944610A4
:101CA0000E94610E7093BF006093D200DCCF80E091
:101CB0001F910F91FF90EF90DF90CF90BF90AF906A
:101CC0000895CF92DF92EF92FF920F931F936B01D3
:101CD0007C0120E030E040E05FE40E94FD1187FDE0
:101CE0000EC020E030E040E05FE4C701B6010E9492
:101CF00016100E94B7128B019C01305806C0C70114
:101D0000B6010E94B7128B019C01B801C9011F9155
:101D10000F91FF90EF90DF90CF900895A4E0B0E096
:101D2000E4E9FEE00C94C5157C016A01FC018081A8
:101D3000823008F44AC1FB019081923008F442C11C
:101D4000843079F4943009F040C1F7019181FB01AE
:101D50008181981709F439C1A7E1EA2EA1E0FA2E92
:101D600034C1943009F42EC1923091F4823009F0DC
:101D70002CC188E0F701DA0101900D928A95E1F714
:101D8000FB018181F70191818923FA0181831CC1C3
:101D9000823009F417C1F70182819381FB01A2818E
:101DA000B381F7010481158126813781FB0184808D
:101DB0009580A680B780FC01EA1BFB0BAF01F7FF03
:101DC00004C0442755274E1B5F0B403251050CF0D1
:101DD00074C01E161F06B4F524013501042E04C07C
:101DE00076946794579447940A94D2F749825A821A
:101DF0006B827C82412C512C3201439404C0440CF0
:101E0000551C661C771C4A95D2F741E0441A5108CC
:101E100061087108482059206A207B20812C912C70
:101E20005401839445284628472819F4812C912C85
:101E3000540149805A806B807C8084289528A6288C
:101E4000B72846C0EF2B09F443C0840F951F280123
:101E50003901042E04C076946794579447940A94E9
:101E6000D2F749825A826B827C82412C512C3201FA
:101E7000439404C0440C551C661C771C4A95D2F749
:101E800041E0441A5108610871084022512262223F
:101E9000732201E010E020E030E045284628472882
:101EA00019F400E010E0980149805A806B807C8032
:101EB00004291529262937290BC0A817B90724F4A6
:101EC000812C912C540104C0CD0100E010E0980158
:101ED000F7014181FB015181451709F446C04423B4
:101EE00049F024013501401A510A620A730A93012C
:101EF000820104C0081919092A093B0937FD05C0E8
:101F0000F6011182938382830CC041E0F601418384
:101F10009383828330952095109501951F4F2F4F05
:101F20003F4F04831583268337830EC0880F991F84
:101F3000AA1FBB1FF60184839583A683B783828182
:101F40009381019793838283F60184819581A68191
:101F5000B781AC01BD0141505109610971094F3F81
:101F60005F4F6F4F7F4310F30CC0F60141839383A3
:101F70008283080D191D2A1D3B1D048315832683AA
:101F8000378383E0F60180834481558166817781C0
:101F900077FF1AC0DB01CA0181709927AA27BB27E6
:101FA0007695679557954795842B952BA62BB72B40
:101FB00084839583A683B7838281938101969383DB
:101FC000828302C07B0101C07601C7012496E0E153
:101FD0000C94E115A0E2B0E0E0EFFFE00C94D31523
:101FE0006D8F7E8F8F8F98A3298F3A8F4B8F5C8F49
:101FF000BE016F5E7F4FCE014D960E944614BE011A
:10200000675F7F4FCE0149960E944614AE014F5F35
:102010005F4FBE01675F7F4FCE0141960E948E0EDB
:102020000E947C13A096E2E00C94EF15A0E2B0E0D1
:10203000ECE1F0E10C94D3156D8F7E8F8F8F98A318
:10204000298F3A8F4B8F5C8FBE016F5E7F4FCE0121
:102050004D960E944614BE01675F7F4FCE014996A0
:102060000E9446148A8591E089278A87AE014F5FD6
:102070005F4FBE01675F7F4FCE0141960E948E0E7B
:102080000E947C13A096E2E00C94EF15A0E2B0E071
:10209000ECE4F0E10C94C5156D8F7E8F8F8F98A3C3
:1020A000298F3A8F4B8F5C8FBE016F5E7F4FCE01C1
:1020B0004D960E944614BE01675F7F4FCE01499640
:1020C0000E9446149989923008F412C089858230A2
:1020D00008F41AC0943021F4823009F4B4C008C066
:1020E000843021F4923009F4AEC00EC0923051F425
:1020F00081E02A899A85291301C080E08A8BCE016C
:102100004196A3C0823051F481E02A899A8529132F
:1021100001C080E08A87CE01099697C08D889E888D
:10212000AF88B88C0D851E852F853889E0E2F0E0F8
:1021300080E090E0DC01C12CD12C760140E050E041
:10214000BA0180FE18C0400F511F621F731F8C0D13
:102150009D1DAE1DBF1D412C512C320143944017D3
:1021600051076207730718F0412C512C3201840D7E
:10217000951DA61DB71DCC0CDD1CEE1CFF1C37FFEA
:1021800002C06894C0F8000F111F221F331FB694BD
:10219000A794979487943197A1F62B893C89EB8576
:1021A000FC852E0F3F1F2E5F3F4F3C832B8321E08A
:1021B000EA893A85E31301C020E02A83EB81FC81A0
:1021C0000CC080FF05C07695679557954795706858
:1021D000B695A795979587953196B7FDF2CF9F0154
:1021E0000CC0880F991FAA1FBB1F77FD8160440F89
:1021F000551F661F771F215031090097A105E0E4A4
:10220000BE0778F32B833C838C019D010F77112748
:1022100022273327003411052105310559F487FDA4
:1022200009C0452B462B472B29F0805C9F4FAF4FB1
:10223000BF4F80788D839E83AF83B88783E0898387
:10224000CE01019602C087E191E00E947C13A09626
:10225000E0E10C94E115A8E1B0E0E1E3F1E10C94D8
:10226000CD156D8B7E8B8F8B988F298B3A8B4B8BFB
:102270005C8BBE01675F7F4FCE0145960E9446147E
:10228000BE016F5F7F4FCE0141960E944614998533
:10229000923008F475C08981823008F474C02A85B0
:1022A0003A8123272A87943011F0923019F4981339
:1022B00067C06CC0843039F41D861E861F86188A5C
:1022C0001C861B8604C0823029F484E08987CE01F5
:1022D00009965EC08B859C852B813C81821B930B6C
:1022E0009C878B874D855E856F857889CD80DE8064
:1022F000EF80F8844C155D056E057F0538F4440FBA
:10230000551F661F771F01979C878B87EFE1F0E0D1
:1023100000E010E020E030E480E090E0DC014C15CB
:102320005D056E057F0540F0802B912BA22BB32B12
:102330004C195D096E097F09369527951795079504
:10234000440F551F661F771F319749F78C019D0178
:102350000F77112722273327003411052105310576
:1023600059F487FD09C0452B462B472B29F0805C8B
:102370009F4FAF4FBF4F80788D879E87AF87B88BB9
:10238000CE01099605C0CE01019602C087E191E019
:102390000E947C136896E8E00C94E915A8E1B0E08F
:1023A000E4EDF1E10C94D3156D8B7E8B8F8B988FC0
:1023B000298B3A8B4B8B5C8BBE01675F7F4FCE01C5
:1023C00045960E944614BE016F5F7F4FCE01419635
:1023D0000E9446148985823058F08981823040F00D
:1023E000BE016F5F7F4FCE0109960E94B51401C0F8
:1023F0008FEF6896E2E00C94EF15A8E1B0E0E3E01F
:10240000F2E10C94D3156D8B7E8B8F8B988F298B7B
:102410003A8B4B8B5C8BBE01675F7F4FCE0145963D
:102420000E944614BE016F5F7F4FCE0141960E940D
:1024300046148985823058F08981823040F0BE018F
:102440006F5F7F4FCE0109960E94B51401C08FEFD8
:102450006896E2E00C94EF15A8E1B0E0E2E3F2E167
:102460000C94D3156D8B7E8B8F8B988F298B3A8B29
:102470004B8B5C8BBE01675F7F4FCE0145960E9400
:102480004614BE016F5F7F4FCE0141960E944614F5
:102490008985823058F08981823040F0BE016F5FBB
:1024A0007F4FCE0109960E94B51401C081E0689665
:1024B000E2E00C94EF15A8E0B0E0E1E6F2E10C9464
:1024C000D11523E029838B019C01002737FD03955B
:1024D000112722273327402F0A83611571058105B3
:1024E000910519F482E0898335C02EE130E03C8308
:1024F0002B83442371F061157105810520E8920753
:1025000071F1002711279801061B170B280B390BB7
:1025100002C08B019C01C901B8010E94FA15019704
:10252000181619062CF00D831E832F83388712C0CE
:10253000082E04C0000F111F221F331F0A94D2F768
:102540000D831E832F8338872EE130E0281B390B43
:102550003C832B83CE0101960E947C1304C060E073
:1025600070E080E09FEC2896E4E00C94ED15ACE080
:10257000B0E0EDEBF2E10C94D11569877A878B8797
:102580009C87BE016F5F7F4FCE0109960E94461463
:102590008981823091F1823080F1843041F48A81E6
:1025A000882331F100E010E020E030E829C02B81E1
:1025B0003C8137FD22C02F3131058CF78EE190E050
:1025C000821B930B0D811E812F81388504C03695A7
:1025D0002795179507958A95D2F78A81882381F0E8
:1025E00030952095109501951F4F2F4F3F4F08C0F4
:1025F0000FEF1FEF2FEF3FE703C000E010E098015F
:10260000B801C9012C96E4E00C94ED15A8E0B0E007
:10261000ECE0F3E10C94CD158B019C011A8261155D
:1026200071058105910519F482E089835DC083E01D
:1026300089834EE150E05C834B83C901B8010E945D
:10264000FA15019797FF39C0EE27FF27E81BF90B12
:1026500041E050E060E070E00E2E04C0440F551FD2
:10266000661F771F0A94D2F7415051096109710919
:102670004023512362237323C12CD12C7601C394B0
:10268000452B462B472B19F4C12CD12C760104C0C5
:102690003695279517950795EA95D2F70C291D29A8
:1026A0002E293F290D831E832F8338872EE130E0AA
:1026B000281B390B3C832B8317C0009729F40D830B
:1026C0001E832F83388710C0082E04C0000F111FEF
:1026D000221F331F0A94D2F70D831E832F8338875E
:1026E000481B590B5C834B83CE0101960E947C13DF
:1026F0002896E8E00C94E9150F931F93CF93DF938E
:10270000DC0114964D915D916D917C911797119616
:10271000EC9111978C91823020F460618FEF90E002
:10272000A6C0843009F49EC0823009F495C04115DA
:1027300051056105710509F492C012962D913C91E5
:10274000139722388FEF38070CF058C0C2E8DFEF3C
:10275000C21BD30BCA31D1056CF58A019B010C2E2B
:1027600004C036952795179507950A94D2F781E00E
:1027700090E0A0E0B0E00C2E04C0880F991FAA1FC3
:10278000BB1F0A94D2F70197A109B10984239523AD
:10279000A623B72341E050E060E070E0892B8A2B4C
:1027A0008B2B19F440E050E0BA01402B512B622BE7
:1027B000732B03C040E050E0BA01DB01CA018F7700
:1027C0009927AA27BB2780349105A105B10539F4C3
:1027D00047FF09C0405C5F4F6F4F7F4F04C0415CB3
:1027E0005F4F6F4F7F4F81E090E0411551056105CC
:1027F00020E4720748F580E090E026C020383105DB
:102800008CF5DB01CA018F779927AA27BB27803473
:102810009105A105B10539F447FF09C0405C5F4F40
:102820006F4F7F4F04C0415C5F4F6F4F7F4F77FD0D
:1028300004C0C90181589F4F07C076956795579589
:102840004795C90180589F4F97E0769567955795B2
:1028500047959A95D1F70BC080E090E005C080E0E5
:1028600090E005C08FEF90E040E050E0BA01982F73
:102870009695E0FB97F9362F80FB37F9642F752F7B
:10288000832FDF91CF911F910F910895CF92DF9207
:10289000EF92DC01FB01CC901196DC90119712961F
:1028A0008C9112973FE7E32EE8226E2DA60170E08F
:1028B000982F991F9927991F13962C91822F880F73
:1028C000892B90E027FB222720F92183009729F507
:1028D000411551056105710511F482E027C082E8B8
:1028E0009FEF9383828327E0440F551F661F771F56
:1028F0002A95D1F783E0808309C0440F551F661FD6
:10290000771F8281938101979383828341155105BB
:10291000610580E4780788F320C08F3F910579F442
:10292000411551056105710519F484E0808319C0D2
:10293000E4FE03C081E0808310C010820EC08F5778
:1029400091099383828383E0808387E0440F551F3E
:10295000661F771F8A95D1F7706444835583668319
:102960007783EF90DF90CF900895CF93FC01DB0148
:102970009081923008F452C08C91823008F44EC09D
:10298000943071F4843039F411962C9130E08181C7
:10299000281B310948C08181882309F43FC03BC00E
:1029A000843029F411968C91811138C034C0923052
:1029B00019F48230B9F735C0823069F3C1811196BC
:1029C0008C911197C8131DC02281338112968D916D
:1029D0009C911397821793070CF413C0281739079B
:1029E0000CF417C0448155816681778114968D91CE
:1029F0009D910D90BC91A02D84179507A607B70750
:102A000018F4C11108C00AC0481759076A077B07A4
:102A100040F4C11103C02FEF3FEF05C021E030E0CB
:102A200002C020E030E0C901CF9108950E949803D0
:102A30000E94E9038AE00E941E0340E050E066E144
:102A400073EC8AE00E94BF0281E00E949C012FEF9C
:102A500083ED90E3215080409040E1F700C00000FA
:102A600036EFE32EFF24FA94C6E9D0E086E00E9418
:102A700010016C0125972FEF83EC99E021508040E5
:102A80009040E1F700C00000BE01882777FD8095E7
:102A9000982F0E945B12AB01BC018AE00E94BF022A
:102AA000EC14FD0414F476018E01CE3C2FEFD20716
:102AB000E9F6B801882777FD8095982F0E945B1270
:102AC000AB01BC018AE00E94BF028FEF99E628E1CA
:102AD000815090402040E1F700C00000C02FD12F6E
:102AE00027E0D22E87E00E9410017C0185E00E9441
:102AF00010018C0186E00E9410019C010817190743
:102B00001CF4E816F9064CF1023011055CF482E081
:102B1000E816F1043CF497E0D91202C025961DC0D6
:102B200025971BC0C901801B910B0B972CF4C70183
:102B3000821B930B0B9724F0259697E0D92E0DC09E
:102B4000C9018E199F090B972CF4021B130B0B3034
:102B500011051CF0259785E0D82EBE01882777FD4A
:102B60008095982F0E945B12AB01BC018AE00E9405
:102B7000BF022FEF83EC99E0215080409040E1F7B5
:102B800000C00000AFCF2F923F924F925F926F92A2
:102B90007F928F929F92AF92BF92CF92DF92EF92ED
:102BA000FF920F931F93CF93DF93CDB7DEB7CA1B6E
:102BB000DB0B0FB6F894DEBF0FBECDBF09942A8899
:102BC000398848885F846E847D848C849B84AA8441
:102BD000B984C884DF80EE80FD800C811B81AA81CE
:102BE000B981CE0FD11D0FB6F894DEBF0FBECDBF99
:102BF000ED0108950E94031684FF0895CB010E9401
:102C00000316805F0895AA27992329F4A85F982BBB
:102C100011F480E10895903118F4AD5F9295A39579
:102C2000990FE8F78A2F99270895FB019F01E894EF
:102C30004230C4F04532B4F44A3029F497FB1EF414
:102C4000909581959F4F642F77270E94B516805DE0
:102C50008A330CF0895D8193CB010097A1F716F4BC
:102C60005DE251931082C9010C94A516FA01CF932D
:102C7000FF93EF93223044F1253234F5C22FE894CC
:102C8000CA3049F497FB3EF4909580957095619514
:102C90007F4F8F4F9F4F2C2F332744275527FF936C
:102CA000EF930E94C916EF91FF91605D6A330CF0BB
:102CB000695D6193B901CA016050704080409040E5
:102CC00051F716F4CDE2C19310828F919F91CF916D
:102CD0000C94A516FA01CF93FF93EF932230CCF01A
:102CE0002532BCF4C22F2C2F332744275527FF93BE
:102CF000EF930E94C916EF91FF91605D6A330CF06B
:102D0000695D6193B901CA01605070408040904094
:102D100051F710828F919F91CF910C94A516FB01D2
:102D20009F01423074F0453264F4642F77270E948B
:102D3000B516805D8A330CF0895D8193CB010097D5
:102D4000A1F71082C9010C94A516DC01FC01672FC4
:102D500071917723E1F7329704C07C916D93708372
:102D60006291AE17BF07C8F30895AA1BBB1B51E1C0
:102D700007C0AA1FBB1FA617B70710F0A61BB70BEB
:102D8000881F991F5A95A9F780959095BC01CD0190
:102D90000895A1E21A2EAA1BBB1BFD010DC0AA1F9C
:102DA000BB1FEE1FFF1FA217B307E407F50720F0B4
:102DB000A21BB30BE40BF50B661F771F881F991F2F
:102DC0001A9469F760957095809590959B01AC0178
:0A2DD000BD01CF010895F894FFCF74
:102DDA000001FF00FF000001010000FF00FF0100E9
:102DEA0000E10000000008000000000000000000F0
:00000001FF
